:100DBC00BCF2D2D7CABEB2A8C6F7004B312043480A
:100DCC0045434B204E4F2044454C4159004B32205B
:100DDC00434845434B2035304D532044454C4159F5
:100DEC00004B3320465245512B004B342046524584
:100DFC00512D00323030485A203C2046524551206B
:100E0C003C20354B485A00507265737320616E79E3
:100E1C00206B6579007600740053463D00487A00DB
:100E2C00487A20006D767E006D76004000E0004030
:100E3C000070004000400040004000600040004056
:100E4C000040004000700040004000400040006046
:100E5C000040004000400040007000400040004056
:100E6C000040006000400040004000400070004026
:100E7C000040004000400060004000400040004046
:100E8C000070004000400040004000600040004006
:100E9C000040100401004010040100401004010047
:100EAC0040421084210842108421084210842108F9
:100EBC00427FFFFFFFFFFFFFFFFFFFFFFFFFFFFF73
:100ECC00FF00000000000000000000000000000017
:010EDC000213
:0F14EA00C10044004C0000138841004900C101BB
:100FC900121278D2AF1212DD12000E7BFF7A0D7960
:100FD900BC7D107F101213D27F327E001214577F0E
:100FE900327E001214577F327E001214577F30125E
:100FF90014407F011214407BFF7A0D79C7E4FDFF8D
:10100900120A317BFF7A0D79D97D0AE4FF120A3180
:101019007BFF7A0D79ED7D14E4FF120A317BFF7AAB
:101029000D79F67D1EE4FF120A317BFF7A0D79FFF7
:101039007D287F07120A317BFF7A0E79137D377F6E
:1010490019120A317B017A007900120EDD90000035
:10105900E0D3940040097B017A007900120B739068
:0B1069000049E0B401DE12140C80D935
:10140C00E4900001F0900001E0FFC3947F5017308E
:10141C0000F3C20074212FF9E4FAFB1214D59000EA
:09142C0001E004F080DF02001E63
:100B7300900001EBF0A3EAF0A3E9F0900001E0FBA1
:100B8300A3E0FAA3E0F912080BFFB41008900049A0
:100B93007401F0D201EFB420089000497401F0C24F
:100BA30001EFB4303AE47F507EC3FDFC90004CE08B
:100BB300F8A3E0F9A3E0FAA3E0FBC31209D0501FA6
:100BC30090004CE0FCA3E0FDA3E0FEA3E024C8FFFB
:100BD300E43EFEE43DFDE43CFC90004C1209F4903D
:100BE3000001E0FBA3E0FAA3E0F912080BB4403CD8
:100BF300E47FC8FEFDFC90004CE0F8A3E0F9A3E01D
:100C0300FAA3E0FBD31209D0402290004CE0FCA3EE
:100C1300E0FDA3E0FEA3E094C8FFEE9400FEED9494
:100C230000FDEC9400FC90004C1209F4900001E0EC
:100C3300FBA3E0FAA3E0F9E4120851900049E07045
:100C4300037402F090004CE0F8A3E0F9A3E0FAA3E8
:100C5300E0FB7F007E107D0E7C0012091AC3E49F27
:100C6300FFE49EFE74019DFDE49CFC78081209E1FB
:100C730090004AEFF090004CE0F8A3E0F9A3E0FA0B
:100C8300A3E0FB7F007E107D0E7C0012091AEFF4B7
:060C93000490004BF0226A
:10001E00E4900002F0A3F0A3F0A3F0A3F0A3F090FD
:10002E00002B120A000000000090002F120A0000A0
:10003E000000FFE4900002F0900002E0FFC3947F06
:10004E00506D74212FF8E6FFE4FCFDFE90002BE0CE
:10005E00F8A3E0F9A3E0FAA3E0FBC31209D0501312
:10006E00900002E02421F8E6FFE4FCFDFE90002B58
:10007E001209F4900002E02421F8E6FFE4FCFDFEF4
:10008E0090002FE0F8A3E0F9A3E0FAA3E0FBD3126F
:10009E0009D04013900002E02421F8E6FFE4FCFDB5
:1000AE00FE90002F1209F4900002E004F08089E423
:1000BE00900002F0900002E0FFC3947F501974216B
:1000CE002FF8F990002FA3A3A3E0FFC3E79FF690AC
:1000DE000002E004F080DD90002FA3A3A3E0FB90CC
:1000EE00002BA3A3A3E0C39B900003F0D394C840BE
:1000FE00089000507405F08046900003E0FFD39402
:10010E0096400EEFD394C850089000507404F080BF
:10011E002EEFD39464400EEFD39496500890005077
:10012E007403F0801AEFD39432400EEFD3946450E0
:10013E00089000507402F080069000507401F0E4B4
:10014E00900003F0900002F0900002E0FFC3947F55
:10015E00502B74212FF8E6FF900050E0FEEF8EF04A
:10016E0084FF900003E0C39F500B900002E0FEA3BB
:10017E00EFF0A3EEF0900002E004F080CB900004CC
:10018E00E0900002F0900002E0FFC3947F502D74C7
:10019E00212FF8E6FF900050E0FEEF8EF084FF90E6
:1001AE000003E0D39F400D900002E0FEA3EFF0901D
:1001BE000005EEF0900002E004F080C9900005E02A
:1001CE00900002F0900002E0FFC3947F502D742146
:1001DE002FF8E6FF900050E0FEEF8EF084FF9000C7
:1001EE0003E0C39F500D900002E0FEA3EFF09000DD
:1001FE0006EEF0900002E004F080C990002FE0F8C7
:10020E00A3E0F9A3E0FAA3E0FB90002BE0FCA3E04F
:10021E00FDA3E0FEA3E0C39BFFEE9AFEED99FDEC7D
:10022E0098FCC007900050E0FBE4FAF9F8D00712F2
:10023E00091AE47B02FAF9F812091AC374199F908D
:10024E000033F0900004E0FF900006E0C39FFFE44F
:10025E009400AB07FAE4F9F890004CE0FCA3E0FD43
:10026E00A3E0FEA3E0FF12091A9000271209F4E49E
:10027E007FE87E03FDFC90002BE0F8A3E0F9A3E0FD
:10028E00FAA3E0FB12088FE47B33FAF9F812091A8D
:10029E0090002B1209F4E47FE87E03FDFC90002F02
:1002AE00E0F8A3E0F9A3E0FAA3E0FB12088FE47BE9
:1002BE0033FAF9F812091A90002F1209F490003748
:1002CE007440F07B80E4FDFF12133A9000377433D4
:1002DE00F0A374FFF0A3740EF0A37437F07B10E458
:1002EE00FDFF1211899000377404F0A374FFF0A380
:1002FE00740EF0A3749DF07B807D33E4FF121189A0
:10030E007BFF7A0E7921E4FD7F05120A317BFF7A9D
:10031E000E79237D2B7F79120A31E4900002F09042
:10032E000002E0FE04FF74212EF8E6FE900050E07D
:10033E00FDEE8DF084FEC374339EFE900033E0FD1F
:10034E00C3EE9DFDD202121100900002E004F0E017
:10035E00C3947F40CAE4900008F090003774FFF019
:10036E00A3740EF0A37425F07B017A0079081212A3
:10037E000D90004C120C99900007EFF0E02421F53F
:10038E0082E43400F583E4F07B0190003704F0A39F
:10039E007400F0A37421F07A00790812120D900007
:1003AE003774FFF0A3740EF0A37429F07B017A006A
:1003BE00790812120D7B017A0079087D38E4FF125C
:1003CE000A312001077F057E001214577B017A0047
:1003DE007908900027120C9F900007EFF0E0240898
:1003EE00F582E43400F583E4F090003774FFF0A357
:1003FE00740EF0A3742CF07B017A00790812120DA2
:10040E0090002F120C99900007EFF0E02421F58256
:10041E00E43400F583E4F07B0190003704F0A3741C
:10042E0000F0A37421F07A00790812120D900037B3
:10043E0074FFF0A3740EF0A37430F07B017A007990
:10044E000812120D7B017A00792190002B120C9F5D
:10045E00900007EFF0E02421F582E43400F583E408
:10046E00F07B0190003704F0A37400F0A37421F028
:10047E007A00790812120D90003774FFF0A3740EF3
:10048E00F0A37434F07B017A00790812120D7B010F
:10049E007A0079087D38E4FF120A312001077F0ABD
:0504AE007E001214574E
:0104B3002226
:100C99007B017A007921E0FCA3E0FDA3E0FEA3E05B
:010CA900FF4B
:0F0CAA00900034EBF0A3EAF0A3E9F0A31209F4F1
:100CB900E490003BF0A3F0900037E0FCA3E0FDA333
:100CC900E0FEA3E0FFEC33502B900037A3A3A3E091
:100CD9001209AC9000371209F4900034E0FBA3E448
:100CE90075F001120879A9F0FA742D1208519000D3
:100CF9003CE004F0E47B0AFAF9F8900037E0FCA341
:100D0900E0FDA3E0FEA3E0FF12138EAF0390003BCA
:100D1900E0FE04F0EEFD3395E0FC743D2DF58274A0
:100D2900003CF583EFF0900037E0FCA3E0FDA3E081
:100D3900FEA3E0FFE47B0AFAF9F812138E9000375C
:100D49001209F4E4FFFEFDFC900037E0F8A3E0F996
:100D5900A3E0FAA3E0FBD31209BA509890003BE054
:100D6900FFA3E02FF090003BE0FF14F0D3EF648085
:100D79009480402AE0FF3395E0FE743D2FF582749C
:100D8900003EF583E02430FF900034E0FBA3E475D6
:100D9900F001120879A9F0FAEF12085180C7900002
:100DA90034E0FBA3E0FAA3E0F9E412085190003C17
:020DB900E0FF59
:010DBB002215
:101278005389F043890190004CE0F8A3E0F9A3E01A
:10128800FAA3E0FB7F007E107D0E7C0012091AC3D2
:10129800E49FFFE49EFE74019DFDE49CFC78081227
:1012A80009E190004AEFF090004CE0F8A3E0F9A3C0
:1012B800E0FAA3E0FB7F007E107D0E7C0012091A85
:1012C800EFF404FF90004BF090004AE0F58C8F8A11
:0512D800D2A9D28C2216
:03000B0002147468
:10147400C0E0C083C08290004AE0F58CA3E0F58A06
:09148400D200D082D083D0E03206
:1004B4002000000000000000002120202020200057
:1004C4002000225050500000000000235050F850EB
:1004D400F8505000242078C07028F0200025C0C8AF
:1004E4001020409818002640A0A040A8906800273B
:1004F4003020400000000000281020404040201020
:10050400002940201010102040002A20A8702070DC
:10051400A820002B202020F8202020002C00000000
:1005240000604080002D000000F8000000002E0054
:10053400000000006060002F0008102040800000D0
:1005440030708898A8C8887000312060202020204E
:10055400700032708808304080F80033F80810309A
:10056400088870003410305090F810100035F8806E
:10057400F0080888700036384080F08888700037AA
:10058400F8081020404040003870888870888870CF
:100594000039708888780810E0003A0060600060D4
:1005A4006000003B00606000606080003C10204000
:1005B40080402010003D0000F800F80000003E409C
:1005C400201008102040003F7088102020002000D8
:1005D400407088B8A8B88078004120508888F8888E
:1005E400880042F08888F08888F000437088808012
:1005F4008088700044F08888888888F00045F880F6
:1006040080F08080F80046F88080F0808080004789
:1006140070888080B888780048888888F8888888B6
:10062400004970202020202070004A38101010103B
:100634009060004B8890A0C0A09088004C8080807F
:10064400808080F8004D88D8A8A8888888004E88C3
:1006540088C8A8988888004F70888888888870001F
:1006640050F08888F0808080005170888888A89035
:10067400680052F08888F0A09088005370888070D9
:100684000888700054F820202020202000558888F5
:100694008888888870005688888888885020005701
:1006A400888888A8A8D888005888885020508888C6
:1006B400005988885020202020005AF80810204033
:1006C40080F8005BF0C0C0C0C0C0F0005C00804097
:1006D40020100800005D78181818181878005E209B
:1006E40070A820202020005F002040F84020000057
:1006F400602010080000000000610000E01070900D
:100704006800628080B0C888C8B000630000708848
:100714008080700064080868988898680065000004
:100724007088F080700066304840F04040400067B8
:1007340000007088887808F0688080B0C88888884D
:10074400006920000020202020006A1000003010E2
:100754001010606B808090A0C0A098006C60202076
:1007640020202070006D000050A8A8A8A8006E00EA
:1007740000B048484848006F0000708888887000BE
:10078400700000F08888F080807100007888887894
:100794000808720000B048404040007300007880B0
:1007A4007008F000744040F8404048300075000084
:1007B4009090909068007600008888885020007798
:1007C4000000A8A8A8A850007800008850205088ED
:1007D400007900008888986808F07A0000F81020F2
:1007E40040F8007B20404080404020007C202020B6
:1007F40000202020007D20101008101020007E0012
:070804000040A810000000F5
:0414F900410051FA63
:0F152200E4FF900051E0FEEFC39E50030F80F3F3
:011531002297
:04148D00AD07AC06F5
:101491007B01EBD39DEC6480F874809850061215A3
:0414A100220B80EEAC
:0114A5002224
:1014A6007580FF00C2B500D2B600D2B700AF80008B
:0714B600C2B700EF20E7F3CD
:0114BD00220C
:0B143500E94480FF121440EC4480FFEB
:10144000AE071214A6C2B500C2B600AF068F800068
:07145000D2B700C2B7002271
:1014BE00AE071214A6D2B500C2B600AF068F8000DA
:0714CE00D2B700C2B70022F3
:1014FE001214A6D2B500D2B600D2B700AF8000C289
:02150E00B70024
:0115100022B8
:1013D200EFC4540FFFEDC4540FFDC3940240061D29
:1013E2001D74082FFFEDC454F02FFD7F30121440FE
:1013F200ED4480FF12144012080BFF600C1214BE61
:09140200740129F9E43AFA80EEC4
:01140B0022BE
:0B118900900034EFF0A3EDF0A3EBF0BA
:10119400900034E0C4540FF0900036E0131313545D
:1011A4001FF0E490003BF0A3F07F36121440E4FDFE
:1011B400900037E0FFEDC39F504E900035E02DFFC7
:1011C400900034E0FCEFC39420400874E02FFF74D7
:1011D400082CFCEF121436E4FC900036E0FFECC35C
:1011E4009F5022900038E0FBA3E0FAA3E0F9A3E4C7
:1011F40075F00112087985F082F583120824FF1234
:0812040014BE0C80D40D80A87B
:01120C0022BF
:04110000AC07A9058A
:10110400E9C39420400874E029F974802CFCEC5461
:101114000FFDECC4540FFC7F361214401214351228
:1011240014FE1214FEAB071214FEAA07EDC39408B2
:10113400502130020F7480A805088002C313D8FC24
:101144004BFB80347F7FA805EF08800103D8FD5B4B
:10115400FB8025300213ED24F8FF7480A807088073
:1011640002C313D8FC4AFA800F7F7FED24F8F8EF0E
:1011740008800103D8FD5AFA121435AF031214BEC5
:05118400AF020214BEE1
:100A3100900035EDF0A3EBF0A3EAF0A3E9F090000C
:030A410034EFF09F
:100A440090003C745FF0EFC394004009900034E0E0
:100A5400D3947F40037F0022900035E0FFC39400CD
:100A64004006EFD3943840037F0022900036E0FB29
:100A7400A3E0FAA3E0F912080B7003020B70E490F0
:100A84000039F090003CE0FF900039E0FEC39F4045
:100A940003020B5C900036E0FBA3E0FAA3E0F9123A
:100AA400080BFF75F009EEA424B4F582E5F03404D4
:100AB400F583E4936F6003020B5390003BF0E490E2
:100AC400003AF090003AE0FFC394065071A3E0FDB1
:100AD400900039E075F009A424B5F582E5F03404FA
:100AE400F583E5822DF582E43583F583E493FB7A7F
:100AF4000074807E00A807088006CEA2E713CE13F8
:100B0400D8F8FFEE5AFEEF5B4E90003A6010E0FF1B
:100B1400900034E02FFFA3E02DFDD2028015E0FF0A
:100B2400900034E02FFF90003BE0FE900035E02E73
:100B3400FDC20212110090003AE004F0808590009A
:100B44003BE004F0E0C394085003020AC280099019
:100B54000039E004F0020A87900037E475F00112CE
:0E0B64000863900034E02406F0020A6F7F015F
:010B72002260
:04133A00AC07A9054E
:10133E00ECC4540FFCEB131313541FFB7F36121423
:10134E0040E4FD900037E0FFEDC39F5032E92DFFE2
:10135E00AA04C39420400874E02FFF74082AFAEF01
:10136E004480FF121440EA4480FF121440E4FAEA6B
:0F137E00C39B5008E4FF1214BE0A80F30D80C415
:01138D00223D
:1012DD00C2B4E4FCE4FD0DEDB47BFB0CECB405F401
:1012ED00D2B4E4FCE4FD0DEDB47BFB0CECB405F4E1
:1012FD007F301214407F011214407F021214407F80
:10130D000C1214407F34121440E4FDED4480FF12A2
:10131D0014407F80121440E4FCE4FF1214BE0CEC68
:0D132D00B420F60DEDB420E37F360214402D
:1014D500D2A0D2A1C2A0C2A130A4FDD2A3E5901290
:0514E5000851C2A32222
:1015110053890F438920758D4CE4F58BD2ABD28E64
:0115210022A7
:0A000E00121511C2A3C2A0C2A12264
:03001B00020003DD
:03000300B2A23274
:10145700D3EF9400EE940040137D057C047BF8DB0A
:0C146700FEDCFADDF6EF1F70E71E80E4EB
:011473002256
:0B0EDD00900001EBF0A3EAF0A3E9F0A5
:100EE80020A5357F017E0012145720A52B90000104
:100EF800E0FBA3E0FAA3E0F97410120851E49000B3
:100F080004F020A5137F017E00121457900004E01E
:100F180004F0E0C3943240EA20A6357F017E001237
:100F2800145720A62B900001E0FBA3E0FAA3E0F9F8
:100F38007420120851E4900004F020A6137F017E6B
:100F480000121457900004E004F0E0C3943240EA21
:100F580020A7357F017E0012145720A72B9000018F
:100F6800E0FBA3E0FAA3E0F97430120851E4900022
:100F780004F020A7137F017E00121457900004E0AC
:100F880004F0E0C3943240EA20B3357F017E0012BA
:100F9800145720B32B900001E0FBA3E0FAA3E0F97B
:100FA8007440120851E4900004F020B3137F017ECE
:100FB80000121457900004E004F0E0C3943240EAB1
:010FC8002206
:0300000002107477
:0C107400787FE4F6D8FD75819F0210BB68
:10080B00BB010689828A83E0225002E722BBFE02EB
:09081B00E32289828A83E493221E
:10082400BB010CE58229F582E5833AF583E0225089
:1008340006E92582F8E622BBFE06E92582F8E222D3
:0D084400E58229F582E5833AF583E49322ED
:10085100BB010689828A83F0225002F722BBFE0186
:02086100F32280
:10086300C5F0F8A3E028F0C5F0F8E5821582700220
:060873001583E038F022BD
:10087900A3F8E0C5F025F0F0E58215827002158332
:06088900E0C838F0E8228F
:10088F00E88FF0A4CC8BF0A42CFCE98EF0A42CFC08
:10089F008AF0EDA42CFCEA8EF0A4CDA8F08BF0A486
:1008AF002DCC3825F0FDE98FF0A42CCD35F0FCEBE5
:1008BF008EF0A4FEA9F0EB8FF0A4CFC5F02ECD39AA
:0F08CF00FEE43CFCEAA42DCE35F0FDE43CFC2217
:1008DE0075F008758200EF2FFFEE33FECD33CDCCD1
:1008EE0033CCC58233C5829BED9AEC99E582984054
:1008FE000CF582EE9BFEED9AFDEC99FC0FD5F0D631
:10090E00E4CEFBE4CDFAE4CCF9A88222B800C1B95A
:10091E000059BA002DEC8BF084CFCECDFCE5F0CB98
:10092E00F97818EF2FFFEE33FEED33FDEC33FCEBD1
:10093E0033FB10D703994004EB99FB0FD8E5E4F98C
:10094E00FA227818EF2FFFEE33FEED33FDEC33FC79
:10095E00C933C910D7059BE99A4007EC9BFCE99A6D
:10096E00F90FD8E0E4C9FAE4CCFB2275F010EF2FB2
:10097E00FFEE33FEED33FDCC33CCC833C810D707B2
:10098E009BEC9AE899400AED9BFDEC9AFCE899F8ED
:0E099E000FD5F0DAE4CDFBE4CCFAE4C8F92280
:10138E00C2D5E830E70FB2D5E4C39BFBE49AFAE48A
:10139E0099F9E498F8EC30E717B2D51213C4120994
:1013AE001AE4C39BFBE49AFAE499F9E498F88003F3
:1013BE0012091A30D50DE4C39FFFE49EFEE49DFD95
:0413CE00E49CFC227D
:0E09AC00C3E49FFFE49EFEE49DFDE49CFC225C
:1009BA00EB9FF5F0EA9E42F0E99D42F0EC6480C8B4
:0609CA0064809845F02254
:1009D000EB9FF5F0EA9E42F0E99D42F0E89C45F07D
:0109E00022F4
:1009E100E8600FECC313FCED13FDEE13FEEF13FFF4
:0309F100D8F12218
:0C09F400ECF0A3EDF0A3EEF0A3EFF02276
:100A0000A8828583F0D083D082120A17120A1712A7
:100A10000A17120A17E473E493A3C583C5F0C583CC
:100A2000C8C582C8F0A3C583C5F0C583C8C582C840
:010A300022A3
:10120D00900034EBF0A3EAF0A3E9F090003AEBF094
:10121D00A3EAF0A3E9F0900034E0FBA3E475F0013C
:10122D00120879A9F0FA12080B70EB90003574FFD3
:10123D00F5F0120863900037E0FBA3E475F001129E
:10124D000879A9F0FA12080BFF900034E0FBA3E433
:10125D0075F001120879A9F0FAEF12085170D690C5
:0B126D00003AE0FBA3E0FAA3E0F92246
:10108000020FC9E493A3F8E493A34003F68001F2AE
:1010900008DFF48029E493A3F85407240CC8C33371
:1010A000C4540F4420C8834004F456800146F6DF40
:1010B000E4800B01020408102040809014EAE47ED2
:1010C000019360BCA3FF543F30E509541FFEE49335
:1010D000A360010ECF54C025E060A840B8E493A3FC
:1010E000FAE493A3F8E493A3C8C582C8CAC583CA27
:1010F000F0A3C8C582C8CAC583CADFE9DEE780BEDF
:0114FD0000EE
:00000001FF
